{"abi":[{"type":"function","name":"bid","inputs":[{"name":"","type":"uint256","internalType":"uint256"}],"outputs":[],"stateMutability":"nonpayable"},{"type":"function","name":"currentAuction","inputs":[],"outputs":[{"name":"","type":"uint256","internalType":"uint256"},{"name":"","type":"address","internalType":"address"},{"name":"","type":"uint256","internalType":"uint256"},{"name":"","type":"uint256","internalType":"uint256"}],"stateMutability":"pure"},{"type":"function","name":"settle","inputs":[],"outputs":[],"stateMutability":"nonpayable"},{"type":"function","name":"startAuction","inputs":[{"name":"","type":"uint256","internalType":"uint256"}],"outputs":[],"stateMutability":"nonpayable"},{"type":"event","name":"AuctionSettled","inputs":[{"name":"tokenId","type":"uint256","indexed":true,"internalType":"uint256"},{"name":"winner","type":"address","indexed":true,"internalType":"address"},{"name":"amount","type":"uint256","indexed":false,"internalType":"uint256"}],"anonymous":false},{"type":"event","name":"AuctionStarted","inputs":[{"name":"tokenId","type":"uint256","indexed":true,"internalType":"uint256"},{"name":"endTime","type":"uint256","indexed":false,"internalType":"uint256"}],"anonymous":false},{"type":"event","name":"BidPlaced","inputs":[{"name":"tokenId","type":"uint256","indexed":true,"internalType":"uint256"},{"name":"bidder","type":"address","indexed":true,"internalType":"address"},{"name":"amount","type":"uint256","indexed":false,"internalType":"uint256"}],"anonymous":false}],"bytecode":{"object":"0x6080604052348015600e575f80fd5b5061016b8061001c5f395ff3fe608060405234801561000f575f80fd5b506004361061004a575f3560e01c8063065de74c1461004e57806311da60b414610063578063454a2ab31461004e578063496a698d1461006b575b5f80fd5b61006161005c36600461011e565b61009f565b005b61006161009f565b6100736100de565b604080519485526001600160a01b03909316602085015291830152606082015260800160405180910390f35b60405162461bcd60e51b815260206004820152600f60248201526e1b9bdd081a5b5c1b195b595b9d1959608a1b60448201526064015b60405180910390fd5b5f805f8060405162461bcd60e51b81526004016100d5906020808252600f908201526e1b9bdd081a5b5c1b195b595b9d1959608a1b604082015260600190565b5f6020828403121561012e575f80fd5b503591905056fea2646970667358221220a974374a433b9d949e5d29b95c56723d20fd4b3fadc68cc155a4bcefc61fdde764736f6c634300081a0033","linkReferences":{}},"methodIdentifiers":{"bid(uint256)":"454a2ab3","currentAuction()":"496a698d","settle()":"11da60b4","startAuction(uint256)":"065de74c"},"id":3}