{"abi":[{"type":"constructor","inputs":[{"name":"_nft","type":"address","internalType":"contract IERC721"},{"name":"_bidToken","type":"address","internalType":"contract IERC20"},{"name":"_gobbledWarplets","type":"address","internalType":"contract IGobbledWarplets"},{"name":"_proceedsRecipient","type":"address","internalType":"address"},{"name":"_timeBuffer","type":"uint256","internalType":"uint256"},{"name":"_reservePrice","type":"uint256","internalType":"uint256"},{"name":"_minBidIncrementPercentage","type":"uint8","internalType":"uint8"},{"name":"_duration","type":"uint256","internalType":"uint256"},{"name":"initialOwner","type":"address","internalType":"address"}],"stateMutability":"nonpayable"},{"type":"function","name":"GOBBLED_MINT_FAILED","inputs":[],"outputs":[{"name":"","type":"uint256","internalType":"uint256"}],"stateMutability":"view"},{"type":"function","name":"auction","inputs":[],"outputs":[{"name":"tokenId","type":"uint256","internalType":"uint256"},{"name":"amount","type":"uint256","internalType":"uint256"},{"name":"startTime","type":"uint256","internalType":"uint256"},{"name":"endTime","type":"uint256","internalType":"uint256"},{"name":"bidder","type":"address","internalType":"address payable"},{"name":"settled","type":"bool","internalType":"bool"}],"stateMutability":"view"},{"type":"function","name":"bid","inputs":[{"name":"amount","type":"uint256","internalType":"uint256"}],"outputs":[],"stateMutability":"nonpayable"},{"type":"function","name":"bidToken","inputs":[],"outputs":[{"name":"","type":"address","internalType":"contract IERC20"}],"stateMutability":"view"},{"type":"function","name":"currentAuction","inputs":[],"outputs":[{"name":"tokenId","type":"uint256","internalType":"uint256"},{"name":"highBidder","type":"address","internalType":"address"},{"name":"highBid","type":"uint256","internalType":"uint256"},{"name":"endTime","type":"uint256","internalType":"uint256"}],"stateMutability":"view"},{"type":"function","name":"duration","inputs":[],"outputs":[{"name":"","type":"uint256","internalType":"uint256"}],"stateMutability":"view"},{"type":"function","name":"extendAuction","inputs":[],"outputs":[],"stateMutability":"nonpayable"},{"type":"function","name":"getQueuedTokenIds","inputs":[],"outputs":[{"name":"orderedIds","type":"uint256[]","internalType":"uint256[]"}],"stateMutability":"view"},{"type":"function","name":"gobbledWarplets","inputs":[],"outputs":[{"name":"","type":"address","internalType":"contract IGobbledWarplets"}],"stateMutability":"view"},{"type":"function","name":"minBidIncrementPercentage","inputs":[],"outputs":[{"name":"","type":"uint8","internalType":"uint8"}],"stateMutability":"view"},{"type":"function","name":"nextQueuedTokenId","inputs":[],"outputs":[{"name":"","type":"uint256","internalType":"uint256"}],"stateMutability":"view"},{"type":"function","name":"nft","inputs":[],"outputs":[{"name":"","type":"address","internalType":"contract IERC721"}],"stateMutability":"view"},{"type":"function","name":"onERC721Received","inputs":[{"name":"","type":"address","internalType":"address"},{"name":"","type":"address","internalType":"address"},{"name":"tokenId","type":"uint256","internalType":"uint256"},{"name":"","type":"bytes","internalType":"bytes"}],"outputs":[{"name":"","type":"bytes4","internalType":"bytes4"}],"stateMutability":"nonpayable"},{"type":"function","name":"owner","inputs":[],"outputs":[{"name":"","type":"address","internalType":"address"}],"stateMutability":"view"},{"type":"function","name":"pause","inputs":[],"outputs":[],"stateMutability":"nonpayable"},{"type":"function","name":"paused","inputs":[],"outputs":[{"name":"","type":"bool","internalType":"bool"}],"stateMutability":"view"},{"type":"function","name":"proceedsRecipient","inputs":[],"outputs":[{"name":"","type":"address","internalType":"address"}],"stateMutability":"view"},{"type":"function","name":"queueBumpFee","inputs":[],"outputs":[{"name":"","type":"uint256","internalType":"uint256"}],"stateMutability":"view"},{"type":"function","name":"queuedLength","inputs":[],"outputs":[{"name":"","type":"uint256","internalType":"uint256"}],"stateMutability":"view"},{"type":"function","name":"renounceOwnership","inputs":[],"outputs":[],"stateMutability":"nonpayable"},{"type":"function","name":"reservePrice","inputs":[],"outputs":[{"name":"","type":"uint256","internalType":"uint256"}],"stateMutability":"view"},{"type":"function","name":"setMinBidIncrementPercentage","inputs":[{"name":"_minBidIncrementPercentage","type":"uint8","internalType":"uint8"}],"outputs":[],"stateMutability":"nonpayable"},{"type":"function","name":"setProceedsRecipient","inputs":[{"name":"_proceedsRecipient","type":"address","internalType":"address"}],"outputs":[],"stateMutability":"nonpayable"},{"type":"function","name":"setQueueBumpFee","inputs":[{"name":"_queueBumpFee","type":"uint256","internalType":"uint256"}],"outputs":[],"stateMutability":"nonpayable"},{"type":"function","name":"setReservePrice","inputs":[{"name":"_reservePrice","type":"uint256","internalType":"uint256"}],"outputs":[],"stateMutability":"nonpayable"},{"type":"function","name":"setTimeBuffer","inputs":[{"name":"_timeBuffer","type":"uint256","internalType":"uint256"}],"outputs":[],"stateMutability":"nonpayable"},{"type":"function","name":"settle","inputs":[],"outputs":[],"stateMutability":"nonpayable"},{"type":"function","name":"settleCurrentAndCreateNewAuction","inputs":[],"outputs":[],"stateMutability":"nonpayable"},{"type":"function","name":"startAuction","inputs":[{"name":"tokenId","type":"uint256","internalType":"uint256"}],"outputs":[],"stateMutability":"nonpayable"},{"type":"function","name":"timeBuffer","inputs":[],"outputs":[{"name":"","type":"uint256","internalType":"uint256"}],"stateMutability":"view"},{"type":"function","name":"tokensReceived","inputs":[{"name":"","type":"address","internalType":"address"},{"name":"from","type":"address","internalType":"address"},{"name":"","type":"address","internalType":"address"},{"name":"amount","type":"uint256","internalType":"uint256"},{"name":"userData","type":"bytes","internalType":"bytes"},{"name":"","type":"bytes","internalType":"bytes"}],"outputs":[],"stateMutability":"nonpayable"},{"type":"function","name":"transferOwnership","inputs":[{"name":"newOwner","type":"address","internalType":"address"}],"outputs":[],"stateMutability":"nonpayable"},{"type":"function","name":"unpause","inputs":[],"outputs":[],"stateMutability":"nonpayable"},{"type":"event","name":"AuctionExtended","inputs":[{"name":"tokenId","type":"uint256","indexed":true,"internalType":"uint256"},{"name":"endTime","type":"uint256","indexed":false,"internalType":"uint256"}],"anonymous":false},{"type":"event","name":"AuctionMinBidIncrementPercentageUpdated","inputs":[{"name":"minBidIncrementPercentage","type":"uint8","indexed":false,"internalType":"uint8"}],"anonymous":false},{"type":"event","name":"AuctionReservePriceUpdated","inputs":[{"name":"reservePrice","type":"uint256","indexed":false,"internalType":"uint256"}],"anonymous":false},{"type":"event","name":"AuctionSettled","inputs":[{"name":"tokenId","type":"uint256","indexed":true,"internalType":"uint256"},{"name":"winner","type":"address","indexed":true,"internalType":"address"},{"name":"amount","type":"uint256","indexed":false,"internalType":"uint256"},{"name":"gobbledTokenId","type":"uint256","indexed":false,"internalType":"uint256"}],"anonymous":false},{"type":"event","name":"AuctionStarted","inputs":[{"name":"tokenId","type":"uint256","indexed":true,"internalType":"uint256"},{"name":"endTime","type":"uint256","indexed":false,"internalType":"uint256"}],"anonymous":false},{"type":"event","name":"AuctionTimeBufferUpdated","inputs":[{"name":"timeBuffer","type":"uint256","indexed":false,"internalType":"uint256"}],"anonymous":false},{"type":"event","name":"BidPlaced","inputs":[{"name":"tokenId","type":"uint256","indexed":true,"internalType":"uint256"},{"name":"bidder","type":"address","indexed":true,"internalType":"address"},{"name":"amount","type":"uint256","indexed":false,"internalType":"uint256"}],"anonymous":false},{"type":"event","name":"OwnershipTransferred","inputs":[{"name":"previousOwner","type":"address","indexed":true,"internalType":"address"},{"name":"newOwner","type":"address","indexed":true,"internalType":"address"}],"anonymous":false},{"type":"event","name":"Paused","inputs":[{"name":"account","type":"address","indexed":false,"internalType":"address"}],"anonymous":false},{"type":"event","name":"ProceedsRecipientUpdated","inputs":[{"name":"recipient","type":"address","indexed":true,"internalType":"address"}],"anonymous":false},{"type":"event","name":"QueueBumpFeeUpdated","inputs":[{"name":"queueBumpFee","type":"uint256","indexed":false,"internalType":"uint256"}],"anonymous":false},{"type":"event","name":"QueueBumped","inputs":[{"name":"payer","type":"address","indexed":true,"internalType":"address"},{"name":"tokenId","type":"uint256","indexed":true,"internalType":"uint256"},{"name":"fee","type":"uint256","indexed":false,"internalType":"uint256"}],"anonymous":false},{"type":"event","name":"TokenEnqueued","inputs":[{"name":"tokenId","type":"uint256","indexed":true,"internalType":"uint256"}],"anonymous":false},{"type":"event","name":"Unpaused","inputs":[{"name":"account","type":"address","indexed":false,"internalType":"address"}],"anonymous":false},{"type":"error","name":"EnforcedPause","inputs":[]},{"type":"error","name":"ExpectedPause","inputs":[]},{"type":"error","name":"OwnableInvalidOwner","inputs":[{"name":"owner","type":"address","internalType":"address"}]},{"type":"error","name":"OwnableUnauthorizedAccount","inputs":[{"name":"account","type":"address","internalType":"address"}]},{"type":"error","name":"ReentrancyGuardReentrantCall","inputs":[]}],"bytecode":{"object":"0x60e060405234801561000f575f80fd5b5060405161261e38038061261e83398101604081905261002e9161043d565b806001600160a01b03811661005d57604051631e4fbdf760e01b81525f60048201526024015b60405180910390fd5b61006681610346565b5060017f9b779b17422d0df92223018b32b4d1fa46e071723d6817e2486d003becc55f00556001600160a01b038916158015906100ab57506001600160a01b03881615155b6100f75760405162461bcd60e51b815260206004820152601760248201527f41756374696f6e53656c6c3a207a65726f20746f6b656e0000000000000000006044820152606401610054565b6001600160a01b03871661014d5760405162461bcd60e51b815260206004820152601960248201527f41756374696f6e53656c6c3a207a65726f20676f62626c6564000000000000006044820152606401610054565b6001600160a01b0386166101a35760405162461bcd60e51b815260206004820152601a60248201527f41756374696f6e53656c6c3a207a65726f2070726f63656564730000000000006044820152606401610054565b6001600160a01b0389811660805288811660a05287811660c052600180546001600160a01b031916918816919091179055600285905560038490556004805460ff191660ff8516179055600582905569d3c21bcecceda1000000600f55610208610395565b60405130602482018190527fb281fc8c12954d22544db45de3159a39272895b169a852b314f9cc762e44c53b604483018190526064830191909152731820a4b7618bde71dce8cdc73aab6c95905fad24915f90839060840160408051601f198184030181529181526020820180516001600160e01b03166329965a1d60e01b1790525161029591906104e3565b5f604051808303815f865af19150503d805f81146102ce576040519150601f19603f3d011682016040523d82523d5f602084013e6102d3565b606091505b50509050806103355760405162461bcd60e51b815260206004820152602860248201527f41756374696f6e53656c6c3a204552433138323020726567697374726174696f6044820152671b8819985a5b195960c21b6064820152608401610054565b5050505050505050505050506104f9565b5f80546001600160a01b038381166001600160a01b0319831681178455604051919092169283917f8be0079c531659141344cd1fd0a4f28419497f9722a3daafe3b4186f6b6457e09190a35050565b61039d6103f4565b5f805460ff60a01b1916600160a01b1790557f62e78cea01bee320cd4e420270b5ea74000d11b0c9f74754ebdbfc544b05a2586103d73390565b6040516001600160a01b03909116815260200160405180910390a1565b6104065f54600160a01b900460ff1690565b156104245760405163d93c066560e01b815260040160405180910390fd5b565b6001600160a01b038116811461043a575f80fd5b50565b5f805f805f805f805f6101208a8c031215610456575f80fd5b895161046181610426565b60208b015190995061047281610426565b60408b015190985061048381610426565b60608b015190975061049481610426565b60808b015160a08c015160c08d0151929850909650945060ff811681146104b9575f80fd5b60e08b01516101008c015191945092506104d281610426565b809150509295985092959850929598565b5f82518060208501845e5f920191825250919050565b60805160a05160c0516120b56105695f395f818161048b015261198501525f818161045b015281816104ff015281816109b2015281816110df0152818161144d0152611ab201525f81816102bd0152818161070801528181610ef00152818161162d0152611a2c01526120b55ff3fe608060405234801561000f575f80fd5b50600436106101f1575f3560e01c8063715018a611610114578063ce9c7c0d116100a9578063eaad2eb311610079578063eaad2eb314610486578063ec91f2a4146104ad578063efa7f90c146104b6578063f25efffc146104c9578063f2fde38b146104d1575f80fd5b8063ce9c7c0d1461043a578063db2e1eed1461044d578063dfafd4fd14610456578063e645c7d01461047d575f80fd5b80638eb19052116100e45780638eb19052146103ed578063a304ee7614610400578063b296024d14610413578063c143171d14610432575f80fd5b8063715018a6146103665780637d9f6db51461036e5780638456cb59146103d55780638da5cb5b146103dd575f80fd5b806341d9551f1161018a578063513433691161015a57806351343369146103275780635c975abb1461032f57806365308cf31461034b5780637120334b14610353575f80fd5b806341d9551f1461029d578063454a2ab3146102a557806347ccca02146102b8578063496a698d146102f7575f80fd5b8063150b7a02116101c5578063150b7a021461024157806322c2861a1461026d57806336ebdb38146102825780633f4ba83a14610295575f80fd5b806223de29146101f5578063065de74c1461020a5780630fb5a6b41461021d57806311da60b414610239575b5f80fd5b610208610203366004611d61565b6104e4565b005b610208610218366004611e10565b6105e1565b61022660055481565b6040519081526020015b60405180910390f35b6102086106cc565b61025461024f366004611e27565b6106fc565b6040516001600160e01b03199091168152602001610230565b610275610801565b6040516102309190611e95565b610208610290366004611ed7565b6108e7565b610208610938565b6102265f1981565b6102086102b3366004611e10565b610980565b6102df7f000000000000000000000000000000000000000000000000000000000000000081565b6040516001600160a01b039091168152602001610230565b6102ff610a7a565b604080519485526001600160a01b039093166020850152918301526060820152608001610230565b600e54610226565b5f54600160a01b900460ff166040519015158152602001610230565b610208610ad5565b610208610361366004611e10565b610c87565b610208610cc4565b600654600754600854600954600a5461039d94939291906001600160a01b03811690600160a01b900460ff1686565b6040805196875260208701959095529385019290925260608401526001600160a01b03166080830152151560a082015260c001610230565b610208610cd5565b5f546001600160a01b03166102df565b6102086103fb366004611e10565b610ce5565b6001546102df906001600160a01b031681565b6004546104209060ff1681565b60405160ff9091168152602001610230565b610226610d22565b610208610448366004611e10565b610d4b565b61022660035481565b6102df7f000000000000000000000000000000000000000000000000000000000000000081565b610226600f5481565b6102df7f000000000000000000000000000000000000000000000000000000000000000081565b61022660025481565b6102086104c4366004611efe565b610d88565b610208610e2f565b6102086104df366004611efe565b610e51565b6104ec610e8b565b6104f4610ea6565b336001600160a01b037f0000000000000000000000000000000000000000000000000000000000000000161461057c5760405162461bcd60e51b815260206004820152602260248201527f41756374696f6e53656c6c3a206f6e6c7920636f6e6669677572656420746f6b60448201526132b760f11b60648201526084015b60405180910390fd5b600f548514801561058d5750604083145b156105b7575f806105a085870187611f19565b915091506105b08983838a610ed0565b50506105c1565b6105c185886111ec565b6105d760015f8051602061206083398151915255565b5050505050505050565b6105e9610e8b565b6105f1610ea6565b60085415806106095750600a54600160a01b900460ff165b6106555760405162461bcd60e51b815260206004820152601960248201527f41756374696f6e53656c6c3a2061756374696f6e206c697665000000000000006044820152606401610573565b61065d610d22565b81146106ab5760405162461bcd60e51b815260206004820152601e60248201527f41756374696f6e53656c6c3a206e6f74206e65787420696e20717565756500006044820152606401610573565b6106b36115b9565b6106c960015f8051602061206083398151915255565b50565b6106d4610e8b565b6106dc61178c565b6106e46117b5565b6106fa60015f8051602061206083398151915255565b565b5f336001600160a01b037f000000000000000000000000000000000000000000000000000000000000000016146107755760405162461bcd60e51b815260206004820181905260248201527f41756374696f6e53656c6c3a206f6e6c7920636f6e66696775726564204e46546044820152606401610573565b600b545f0361079b57600b849055600c8490555f848152600d60205260408120556107bc565b600c80545f908152600d602052604080822087905591869055858152908120555b600e8054600101905560405184907ff694756cc9bea91256a2b78e708fdf2e4f084dff11c155380e3020d5156da696905f90a250630a85bd0160e11b95945050505050565b600e546060908067ffffffffffffffff81111561082057610820611f39565b604051908082528060200260200182016040528015610849578160200160208202803683370190505b50600b549092505f5b82811015610893578184828151811061086d5761086d611f4d565b6020908102919091018101919091525f928352600d905260409091205490600101610852565b5080156108e25760405162461bcd60e51b815260206004820152601a60248201527f41756374696f6e53656c6c3a20717565756520636f72727570740000000000006044820152606401610573565b505090565b6108ef611bc8565b6004805460ff191660ff83169081179091556040519081527fef9aafb6f680d6631f801fc1065b9431193abcb849051a7f8ddec8997cd9b101906020015b60405180910390a150565b610940611bc8565b610948610e8b565b610950611bf4565b60085415806109685750600a54600160a01b900460ff165b156106e457600b5415155b156106e4576106e46115b9565b610988610e8b565b610990610ea6565b6040516323b872dd60e01b8152336004820152306024820152604481018290527f00000000000000000000000000000000000000000000000000000000000000006001600160a01b0316906323b872dd906064016020604051808303815f875af1158015610a00573d5f803e3d5ffd5b505050506040513d601f19601f82011682018060405250810190610a249190611f61565b610a705760405162461bcd60e51b815260206004820152601860248201527f41756374696f6e53656c6c3a2070756c6c206661696c656400000000000000006044820152606401610573565b6106b381336111ec565b5f805f806006600201545f1480610a9a5750600a54600160a01b900460ff165b15610aaf57505f925082915081905080610acf565b5050600654600a546007546009549294506001600160a01b039091169250905b90919293565b610add610e8b565b610ae5610ea6565b6040805160c081018252600654815260075460208201819052600854928201929092526009546060820152600a546001600160a01b0381166080830152600160a01b900460ff16151560a08201529015610b795760405162461bcd60e51b815260206004820152601560248201527441756374696f6e53656c6c3a20686173206269647360581b6044820152606401610573565b8060600151421015610bcd5760405162461bcd60e51b815260206004820152601760248201527f41756374696f6e53656c6c3a207374696c6c206c6976650000000000000000006044820152606401610573565b604081015115801590610be257508060a00151155b610c285760405162461bcd60e51b815260206004820152601760248201527620bab1ba34b7b729b2b6361d1037379030bab1ba34b7b760491b6044820152606401610573565b600554610c359042611f94565b60098190558151604051918252907f6e912a3a9105bdd2af817ba5adc14e6c127c1035b5b648faa29ca0d58ab8ff4e9060200160405180910390a2506106fa60015f8051602061206083398151915255565b610c8f611bc8565b60028190556040518181527f1b55d9f7002bda4490f467e326f22a4a847629c0f2d1ed421607d318d25b410d9060200161092d565b610ccc611bc8565b6106fa5f611c48565b610cdd611bc8565b6106fa611c97565b610ced611bc8565b600f8190556040518181527ff6daedb4ddc4b98b0abfaf9f9ea74c68f5b0f3d56ed85ebb15fa62b17af8826a9060200161092d565b5f600b545f03610d445760405162461bcd60e51b815260040161057390611fad565b50600b5490565b610d53611bc8565b60038190556040518181527f6ab2e127d7fdf53b8f304e59d3aab5bfe97979f52a85479691a6fab27a28a6b29060200161092d565b610d90611bc8565b6001600160a01b038116610de65760405162461bcd60e51b815260206004820152601a60248201527f41756374696f6e53656c6c3a207a65726f2070726f63656564730000000000006044820152606401610573565b600180546001600160a01b0319166001600160a01b0383169081179091556040517f4633ba4b294a26448a1f912a51fea8c14eedcd52e3a602334e6b4bd0bba08fc6905f90a250565b610e37610e8b565b610e3f610ea6565b610e476117b5565b600b541515610973565b610e59611bc8565b6001600160a01b038116610e8257604051631e4fbdf760e01b81525f6004820152602401610573565b6106c981611c48565b610e93611cd9565b60025f8051602061206083398151915255565b5f54600160a01b900460ff16156106fa5760405163d93c066560e01b815260040160405180910390fd5b6040516331a9108f60e11b81526004810184905230906001600160a01b037f00000000000000000000000000000000000000000000000000000000000000001690636352211e90602401602060405180830381865afa158015610f35573d5f803e3d5ffd5b505050506040513d601f19601f82011682018060405250810190610f599190611fe4565b6001600160a01b031614610faf5760405162461bcd60e51b815260206004820152601c60248201527f41756374696f6e53656c6c3a206e6f7420686f6c64696e67204e4654000000006044820152606401610573565b600b545f03610fd05760405162461bcd60e51b815260040161057390611fad565b600b5483036110215760405162461bcd60e51b815260206004820152601a60248201527f41756374696f6e53656c6c3a20616c72656164792066697273740000000000006044820152606401610573565b5f828152600d602052604090205483146110755760405162461bcd60e51b815260206004820152601560248201527420bab1ba34b7b729b2b6361d103130b210383932bb60591b6044820152606401610573565b5f838152600d6020526040808220548483529120819055600c5484900361109c57600c8390555b600b80545f868152600d6020526040908190209190915590859055600154905163a9059cbb60e01b81526001600160a01b039182166004820152602481018490527f00000000000000000000000000000000000000000000000000000000000000009091169063a9059cbb906044016020604051808303815f875af1158015611127573d5f803e3d5ffd5b505050506040513d601f19601f8201168201806040525081019061114b9190611f61565b6111a15760405162461bcd60e51b815260206004820152602160248201527f41756374696f6e53656c6c3a2062756d702070726f6365656473206661696c656044820152601960fa1b6064820152608401610573565b83856001600160a01b03167f22a742fc4bc38a0480069221d39d2835d7f48fb50057a23df0ec51e57782516f846040516111dd91815260200190565b60405180910390a35050505050565b6040805160c081018252600654815260075460208201526008549181018290526009546060820152600a546001600160a01b0381166080830152600160a01b900460ff16151560a0820152905f036112805760405162461bcd60e51b815260206004820152601760248201527620bab1ba34b7b729b2b6361d1037379030bab1ba34b7b760491b6044820152606401610573565b8060a00151156112c95760405162461bcd60e51b8152602060048201526014602482015273105d58dd1a5bdb94d95b1b0e881cd95d1d1b195960621b6044820152606401610573565b806060015142106113135760405162461bcd60e51b8152602060048201526014602482015273105d58dd1a5bdb94d95b1b0e88195e1c1a5c995960621b6044820152606401610573565b6003548310156113655760405162461bcd60e51b815260206004820152601a60248201527f41756374696f6e53656c6c3a2062656c6f7720726573657276650000000000006044820152606401610573565b6020810151156113f15760045460208201516064916113899160ff90911690611fff565b6113939190612016565b81602001516113a29190611f94565b8310156113f15760405162461bcd60e51b815260206004820152601860248201527f41756374696f6e53656c6c3a2062696420746f6f206c6f7700000000000000006044820152606401610573565b608081015160208201516007859055600a80546001600160a01b0319166001600160a01b03868116919091179091558216156115035760405163a9059cbb60e01b81526001600160a01b038381166004830152602482018390527f0000000000000000000000000000000000000000000000000000000000000000169063a9059cbb906044016020604051808303815f875af1158015611493573d5f803e3d5ffd5b505050506040513d601f19601f820116820180604052508101906114b79190611f61565b6115035760405162461bcd60e51b815260206004820152601a60248201527f41756374696f6e53656c6c3a20726566756e64206661696c65640000000000006044820152606401610573565b5f6002544285606001516115179190612035565b10905080156115315760025461152d9042611f94565b6009555b83516040518781526001600160a01b03871691907f0e54eff26401bf69b81b26f60bd85ef47f5d85275c1d268d84f68d6897431c479060200160405180910390a380156115b15783516009546040519081527f6e912a3a9105bdd2af817ba5adc14e6c127c1035b5b648faa29ca0d58ab8ff4e9060200160405180910390a25b505050505050565b600b545f036115da5760405162461bcd60e51b815260040161057390611fad565b600b80545f818152600d6020526040812080549082905592839055909190819003611604575f600c555b600e80545f190190556040516331a9108f60e11b81526004810183905230906001600160a01b037f00000000000000000000000000000000000000000000000000000000000000001690636352211e90602401602060405180830381865afa158015611672573d5f803e3d5ffd5b505050506040513d601f19601f820116820180604052508101906116969190611fe4565b6001600160a01b0316146116ec5760405162461bcd60e51b815260206004820152601c60248201527f41756374696f6e53656c6c3a206e6f7420686f6c64696e67204e4654000000006044820152606401610573565b60055442905f906116fd9083611f94565b6040805160c0810182528681525f6020808301829052828401879052606083018590526080830182905260a0909201819052600688905560075560088590556009839055600a80546001600160a81b0319169055905182815291925085917ff8910119ddbef5440c54532457dfe8250a10ed39e583292818f44724b9e1344c910160405180910390a250505050565b5f54600160a01b900460ff166106fa57604051638dfc202b60e01b815260040160405180910390fd5b6040805160c081018252600654815260075460208201819052600854928201929092526009546060820152600a546001600160a01b0381166080830152600160a01b900460ff16151560a0820152906118505760405162461bcd60e51b815260206004820152601760248201527f41756374696f6e53656c6c3a206e6565647320626964730000000000000000006044820152606401610573565b80604001515f0361189c5760405162461bcd60e51b815260206004820152601660248201527520bab1ba34b7b729b2b6361d103737ba103132b3bab760511b6044820152606401610573565b8060a00151156118ee5760405162461bcd60e51b815260206004820152601c60248201527f41756374696f6e53656c6c3a20616c726561647920736574746c6564000000006044820152606401610573565b80606001514210156119425760405162461bcd60e51b815260206004820152601960248201527f41756374696f6e53656c6c3a206e6f7420636f6d706c657465000000000000006044820152606401610573565b600a805460ff60a01b1916600160a01b179055608081015181516040516340c10f1960e01b81526001600160a01b03928316600482015260248101919091525f917f000000000000000000000000000000000000000000000000000000000000000016906340c10f19906044016020604051808303815f875af19250505080156119e9575060408051601f3d908101601f191682019092526119e691810190612048565b60015b6119f557505f196119f8565b90505b608082015182516040516323b872dd60e01b81523060048201526001600160a01b03928316602482015260448101919091527f0000000000000000000000000000000000000000000000000000000000000000909116906323b872dd906064015f604051808303815f87803b158015611a6f575f80fd5b505af1158015611a81573d5f803e3d5ffd5b5050600154602085015160405163a9059cbb60e01b81526001600160a01b03928316600482015260248101919091527f0000000000000000000000000000000000000000000000000000000000000000909116925063a9059cbb91506044016020604051808303815f875af1158015611afc573d5f803e3d5ffd5b505050506040513d601f19601f82011682018060405250810190611b209190611f61565b611b6c5760405162461bcd60e51b815260206004820152601c60248201527f41756374696f6e53656c6c3a2070726f6365656473206661696c6564000000006044820152606401610573565b81608001516001600160a01b0316825f01517ff3f2616e1974d63dd639b6a9ee3bb862a76b9bb4909e0a92a1e95b475e3821b7846020015184604051611bbc929190918252602082015260400190565b60405180910390a35050565b5f546001600160a01b031633146106fa5760405163118cdaa760e01b8152336004820152602401610573565b611bfc61178c565b5f805460ff60a01b191690557f5db9ee0a495bf2e6ff9c91a7834c1ba4fdd244a5e8aa4e537bd38aeae4b073aa335b6040516001600160a01b03909116815260200160405180910390a1565b5f80546001600160a01b038381166001600160a01b0319831681178455604051919092169283917f8be0079c531659141344cd1fd0a4f28419497f9722a3daafe3b4186f6b6457e09190a35050565b611c9f610ea6565b5f805460ff60a01b1916600160a01b1790557f62e78cea01bee320cd4e420270b5ea74000d11b0c9f74754ebdbfc544b05a258611c2b3390565b5f80516020612060833981519152546002036106fa57604051633ee5aeb560e01b815260040160405180910390fd5b6001600160a01b03811681146106c9575f80fd5b5f8083601f840112611d2c575f80fd5b50813567ffffffffffffffff811115611d43575f80fd5b602083019150836020828501011115611d5a575f80fd5b9250929050565b5f805f805f805f8060c0898b031215611d78575f80fd5b8835611d8381611d08565b97506020890135611d9381611d08565b96506040890135611da381611d08565b955060608901359450608089013567ffffffffffffffff811115611dc5575f80fd5b611dd18b828c01611d1c565b90955093505060a089013567ffffffffffffffff811115611df0575f80fd5b611dfc8b828c01611d1c565b999c989b5096995094979396929594505050565b5f60208284031215611e20575f80fd5b5035919050565b5f805f805f60808688031215611e3b575f80fd5b8535611e4681611d08565b94506020860135611e5681611d08565b935060408601359250606086013567ffffffffffffffff811115611e78575f80fd5b611e8488828901611d1c565b969995985093965092949392505050565b602080825282518282018190525f918401906040840190835b81811015611ecc578351835260209384019390920191600101611eae565b509095945050505050565b5f60208284031215611ee7575f80fd5b813560ff81168114611ef7575f80fd5b9392505050565b5f60208284031215611f0e575f80fd5b8135611ef781611d08565b5f8060408385031215611f2a575f80fd5b50508035926020909101359150565b634e487b7160e01b5f52604160045260245ffd5b634e487b7160e01b5f52603260045260245ffd5b5f60208284031215611f71575f80fd5b81518015158114611ef7575f80fd5b634e487b7160e01b5f52601160045260245ffd5b80820180821115611fa757611fa7611f80565b92915050565b60208082526018908201527f41756374696f6e53656c6c3a20656d7074792071756575650000000000000000604082015260600190565b5f60208284031215611ff4575f80fd5b8151611ef781611d08565b8082028115828204841417611fa757611fa7611f80565b5f8261203057634e487b7160e01b5f52601260045260245ffd5b500490565b81810381811115611fa757611fa7611f80565b5f60208284031215612058575f80fd5b505191905056fe9b779b17422d0df92223018b32b4d1fa46e071723d6817e2486d003becc55f00a2646970667358221220897ff3d3c6fb69b49cc348b8e4dd459af9a70ec5a2bf142bccb4db84e788516864736f6c634300081a0033","linkReferences":{}},"methodIdentifiers":{"GOBBLED_MINT_FAILED()":"41d9551f","auction()":"7d9f6db5","bid(uint256)":"454a2ab3","bidToken()":"dfafd4fd","currentAuction()":"496a698d","duration()":"0fb5a6b4","extendAuction()":"65308cf3","getQueuedTokenIds()":"22c2861a","gobbledWarplets()":"eaad2eb3","minBidIncrementPercentage()":"b296024d","nextQueuedTokenId()":"c143171d","nft()":"47ccca02","onERC721Received(address,address,uint256,bytes)":"150b7a02","owner()":"8da5cb5b","pause()":"8456cb59","paused()":"5c975abb","proceedsRecipient()":"a304ee76","queueBumpFee()":"e645c7d0","queuedLength()":"51343369","renounceOwnership()":"715018a6","reservePrice()":"db2e1eed","setMinBidIncrementPercentage(uint8)":"36ebdb38","setProceedsRecipient(address)":"efa7f90c","setQueueBumpFee(uint256)":"8eb19052","setReservePrice(uint256)":"ce9c7c0d","setTimeBuffer(uint256)":"7120334b","settle()":"11da60b4","settleCurrentAndCreateNewAuction()":"f25efffc","startAuction(uint256)":"065de74c","timeBuffer()":"ec91f2a4","tokensReceived(address,address,address,uint256,bytes,bytes)":"0023de29","transferOwnership(address)":"f2fde38b","unpause()":"3f4ba83a"},"id":71}