{"abi":[{"type":"constructor","inputs":[{"name":"_nft","type":"address","internalType":"contract IERC721"},{"name":"_bidToken","type":"address","internalType":"contract IERC20"},{"name":"_gobbledWarplets","type":"address","internalType":"contract IGobbledWarplets"},{"name":"_proceedsRecipient","type":"address","internalType":"address"},{"name":"_timeBuffer","type":"uint256","internalType":"uint256"},{"name":"_reservePrice","type":"uint256","internalType":"uint256"},{"name":"_minBidIncrementPercentage","type":"uint8","internalType":"uint8"},{"name":"_duration","type":"uint256","internalType":"uint256"},{"name":"initialOwner","type":"address","internalType":"address"}],"stateMutability":"nonpayable"},{"type":"function","name":"auction","inputs":[],"outputs":[{"name":"tokenId","type":"uint256","internalType":"uint256"},{"name":"amount","type":"uint256","internalType":"uint256"},{"name":"startTime","type":"uint256","internalType":"uint256"},{"name":"endTime","type":"uint256","internalType":"uint256"},{"name":"bidder","type":"address","internalType":"address payable"},{"name":"settled","type":"bool","internalType":"bool"}],"stateMutability":"view"},{"type":"function","name":"bid","inputs":[{"name":"amount","type":"uint256","internalType":"uint256"}],"outputs":[],"stateMutability":"nonpayable"},{"type":"function","name":"bidToken","inputs":[],"outputs":[{"name":"","type":"address","internalType":"contract IERC20"}],"stateMutability":"view"},{"type":"function","name":"compactQueue","inputs":[],"outputs":[],"stateMutability":"nonpayable"},{"type":"function","name":"currentAuction","inputs":[],"outputs":[{"name":"tokenId","type":"uint256","internalType":"uint256"},{"name":"highBidder","type":"address","internalType":"address"},{"name":"highBid","type":"uint256","internalType":"uint256"},{"name":"endTime","type":"uint256","internalType":"uint256"}],"stateMutability":"view"},{"type":"function","name":"duration","inputs":[],"outputs":[{"name":"","type":"uint256","internalType":"uint256"}],"stateMutability":"view"},{"type":"function","name":"extendAuction","inputs":[],"outputs":[],"stateMutability":"nonpayable"},{"type":"function","name":"gobbledWarplets","inputs":[],"outputs":[{"name":"","type":"address","internalType":"contract IGobbledWarplets"}],"stateMutability":"view"},{"type":"function","name":"mainQueueAt","inputs":[{"name":"index","type":"uint256","internalType":"uint256"}],"outputs":[{"name":"tokenId","type":"uint256","internalType":"uint256"}],"stateMutability":"view"},{"type":"function","name":"minBidIncrementPercentage","inputs":[],"outputs":[{"name":"","type":"uint8","internalType":"uint8"}],"stateMutability":"view"},{"type":"function","name":"nextQueuedTokenId","inputs":[],"outputs":[{"name":"","type":"uint256","internalType":"uint256"}],"stateMutability":"view"},{"type":"function","name":"nft","inputs":[],"outputs":[{"name":"","type":"address","internalType":"contract IERC721"}],"stateMutability":"view"},{"type":"function","name":"onERC721Received","inputs":[{"name":"","type":"address","internalType":"address"},{"name":"","type":"address","internalType":"address"},{"name":"tokenId","type":"uint256","internalType":"uint256"},{"name":"","type":"bytes","internalType":"bytes"}],"outputs":[{"name":"","type":"bytes4","internalType":"bytes4"}],"stateMutability":"nonpayable"},{"type":"function","name":"owner","inputs":[],"outputs":[{"name":"","type":"address","internalType":"address"}],"stateMutability":"view"},{"type":"function","name":"pause","inputs":[],"outputs":[],"stateMutability":"nonpayable"},{"type":"function","name":"paused","inputs":[],"outputs":[{"name":"","type":"bool","internalType":"bool"}],"stateMutability":"view"},{"type":"function","name":"priorityQueueLength","inputs":[],"outputs":[{"name":"","type":"uint256","internalType":"uint256"}],"stateMutability":"view"},{"type":"function","name":"proceedsRecipient","inputs":[],"outputs":[{"name":"","type":"address","internalType":"address"}],"stateMutability":"view"},{"type":"function","name":"queueBumpFee","inputs":[],"outputs":[{"name":"","type":"uint256","internalType":"uint256"}],"stateMutability":"view"},{"type":"function","name":"queueHead","inputs":[],"outputs":[{"name":"","type":"uint256","internalType":"uint256"}],"stateMutability":"view"},{"type":"function","name":"queuedLength","inputs":[],"outputs":[{"name":"","type":"uint256","internalType":"uint256"}],"stateMutability":"view"},{"type":"function","name":"renounceOwnership","inputs":[],"outputs":[],"stateMutability":"nonpayable"},{"type":"function","name":"reservePrice","inputs":[],"outputs":[{"name":"","type":"uint256","internalType":"uint256"}],"stateMutability":"view"},{"type":"function","name":"setMinBidIncrementPercentage","inputs":[{"name":"_minBidIncrementPercentage","type":"uint8","internalType":"uint8"}],"outputs":[],"stateMutability":"nonpayable"},{"type":"function","name":"setProceedsRecipient","inputs":[{"name":"_proceedsRecipient","type":"address","internalType":"address"}],"outputs":[],"stateMutability":"nonpayable"},{"type":"function","name":"setQueueBumpFee","inputs":[{"name":"_queueBumpFee","type":"uint256","internalType":"uint256"}],"outputs":[],"stateMutability":"nonpayable"},{"type":"function","name":"setReservePrice","inputs":[{"name":"_reservePrice","type":"uint256","internalType":"uint256"}],"outputs":[],"stateMutability":"nonpayable"},{"type":"function","name":"setTimeBuffer","inputs":[{"name":"_timeBuffer","type":"uint256","internalType":"uint256"}],"outputs":[],"stateMutability":"nonpayable"},{"type":"function","name":"settle","inputs":[],"outputs":[],"stateMutability":"nonpayable"},{"type":"function","name":"settleCurrentAndCreateNewAuction","inputs":[],"outputs":[],"stateMutability":"nonpayable"},{"type":"function","name":"startAuction","inputs":[{"name":"tokenId","type":"uint256","internalType":"uint256"}],"outputs":[],"stateMutability":"nonpayable"},{"type":"function","name":"timeBuffer","inputs":[],"outputs":[{"name":"","type":"uint256","internalType":"uint256"}],"stateMutability":"view"},{"type":"function","name":"tokensReceived","inputs":[{"name":"","type":"address","internalType":"address"},{"name":"from","type":"address","internalType":"address"},{"name":"","type":"address","internalType":"address"},{"name":"amount","type":"uint256","internalType":"uint256"},{"name":"userData","type":"bytes","internalType":"bytes"},{"name":"","type":"bytes","internalType":"bytes"}],"outputs":[],"stateMutability":"nonpayable"},{"type":"function","name":"transferOwnership","inputs":[{"name":"newOwner","type":"address","internalType":"address"}],"outputs":[],"stateMutability":"nonpayable"},{"type":"function","name":"unpause","inputs":[],"outputs":[],"stateMutability":"nonpayable"},{"type":"event","name":"AuctionExtended","inputs":[{"name":"tokenId","type":"uint256","indexed":true,"internalType":"uint256"},{"name":"endTime","type":"uint256","indexed":false,"internalType":"uint256"}],"anonymous":false},{"type":"event","name":"AuctionMinBidIncrementPercentageUpdated","inputs":[{"name":"minBidIncrementPercentage","type":"uint8","indexed":false,"internalType":"uint8"}],"anonymous":false},{"type":"event","name":"AuctionReservePriceUpdated","inputs":[{"name":"reservePrice","type":"uint256","indexed":false,"internalType":"uint256"}],"anonymous":false},{"type":"event","name":"AuctionSettled","inputs":[{"name":"tokenId","type":"uint256","indexed":true,"internalType":"uint256"},{"name":"winner","type":"address","indexed":true,"internalType":"address"},{"name":"amount","type":"uint256","indexed":false,"internalType":"uint256"},{"name":"gobbledTokenId","type":"uint256","indexed":false,"internalType":"uint256"}],"anonymous":false},{"type":"event","name":"AuctionStarted","inputs":[{"name":"tokenId","type":"uint256","indexed":true,"internalType":"uint256"},{"name":"endTime","type":"uint256","indexed":false,"internalType":"uint256"}],"anonymous":false},{"type":"event","name":"AuctionTimeBufferUpdated","inputs":[{"name":"timeBuffer","type":"uint256","indexed":false,"internalType":"uint256"}],"anonymous":false},{"type":"event","name":"BidPlaced","inputs":[{"name":"tokenId","type":"uint256","indexed":true,"internalType":"uint256"},{"name":"bidder","type":"address","indexed":true,"internalType":"address"},{"name":"amount","type":"uint256","indexed":false,"internalType":"uint256"}],"anonymous":false},{"type":"event","name":"OwnershipTransferred","inputs":[{"name":"previousOwner","type":"address","indexed":true,"internalType":"address"},{"name":"newOwner","type":"address","indexed":true,"internalType":"address"}],"anonymous":false},{"type":"event","name":"Paused","inputs":[{"name":"account","type":"address","indexed":false,"internalType":"address"}],"anonymous":false},{"type":"event","name":"ProceedsRecipientUpdated","inputs":[{"name":"recipient","type":"address","indexed":true,"internalType":"address"}],"anonymous":false},{"type":"event","name":"QueueBumpFeeUpdated","inputs":[{"name":"queueBumpFee","type":"uint256","indexed":false,"internalType":"uint256"}],"anonymous":false},{"type":"event","name":"QueueBumped","inputs":[{"name":"payer","type":"address","indexed":true,"internalType":"address"},{"name":"tokenId","type":"uint256","indexed":true,"internalType":"uint256"},{"name":"fee","type":"uint256","indexed":false,"internalType":"uint256"}],"anonymous":false},{"type":"event","name":"Unpaused","inputs":[{"name":"account","type":"address","indexed":false,"internalType":"address"}],"anonymous":false},{"type":"error","name":"EnforcedPause","inputs":[]},{"type":"error","name":"ExpectedPause","inputs":[]},{"type":"error","name":"OwnableInvalidOwner","inputs":[{"name":"owner","type":"address","internalType":"address"}]},{"type":"error","name":"OwnableUnauthorizedAccount","inputs":[{"name":"account","type":"address","internalType":"address"}]},{"type":"error","name":"ReentrancyGuardReentrantCall","inputs":[]}],"bytecode":{"object":"0x60e060405234801561000f575f80fd5b506040516127c13803806127c183398101604081905261002e9161043d565b806001600160a01b03811661005d57604051631e4fbdf760e01b81525f60048201526024015b60405180910390fd5b61006681610346565b5060017f9b779b17422d0df92223018b32b4d1fa46e071723d6817e2486d003becc55f00556001600160a01b038916158015906100ab57506001600160a01b03881615155b6100f75760405162461bcd60e51b815260206004820152601760248201527f41756374696f6e53656c6c3a207a65726f20746f6b656e0000000000000000006044820152606401610054565b6001600160a01b03871661014d5760405162461bcd60e51b815260206004820152601960248201527f41756374696f6e53656c6c3a207a65726f20676f62626c6564000000000000006044820152606401610054565b6001600160a01b0386166101a35760405162461bcd60e51b815260206004820152601a60248201527f41756374696f6e53656c6c3a207a65726f2070726f63656564730000000000006044820152606401610054565b6001600160a01b0389811660805288811660a05287811660c052600180546001600160a01b031916918816919091179055600285905560038490556004805460ff191660ff8516179055600582905569d3c21bcecceda1000000600e55610208610395565b60405130602482018190527fb281fc8c12954d22544db45de3159a39272895b169a852b314f9cc762e44c53b604483018190526064830191909152731820a4b7618bde71dce8cdc73aab6c95905fad24915f90839060840160408051601f198184030181529181526020820180516001600160e01b03166329965a1d60e01b1790525161029591906104e3565b5f604051808303815f865af19150503d805f81146102ce576040519150601f19603f3d011682016040523d82523d5f602084013e6102d3565b606091505b50509050806103355760405162461bcd60e51b815260206004820152602860248201527f41756374696f6e53656c6c3a204552433138323020726567697374726174696f6044820152671b8819985a5b195960c21b6064820152608401610054565b5050505050505050505050506104f9565b5f80546001600160a01b038381166001600160a01b0319831681178455604051919092169283917f8be0079c531659141344cd1fd0a4f28419497f9722a3daafe3b4186f6b6457e09190a35050565b61039d6103f4565b5f805460ff60a01b1916600160a01b1790557f62e78cea01bee320cd4e420270b5ea74000d11b0c9f74754ebdbfc544b05a2586103d73390565b6040516001600160a01b03909116815260200160405180910390a1565b6104065f54600160a01b900460ff1690565b156104245760405163d93c066560e01b815260040160405180910390fd5b565b6001600160a01b038116811461043a575f80fd5b50565b5f805f805f805f805f6101208a8c031215610456575f80fd5b895161046181610426565b60208b015190995061047281610426565b60408b015190985061048381610426565b60608b015190975061049481610426565b60808b015160a08c015160c08d0151929850909650945060ff811681146104b9575f80fd5b60e08b01516101008c015191945092506104d281610426565b809150509295985092959850929598565b5f82518060208501845e5f920191825250919050565b60805160a05160c0516122586105695f395f81816104af0152611b7901525f818161047f01528181610523015281816108ac0152818161121d0152818161158b0152611c9e01525f81816102be0152818161072c01528181610ffe015281816118220152611c1a01526122585ff3fe608060405234801561000f575f80fd5b5060043610610207575f3560e01c806379b835b21161011f578063ce9c7c0d116100a9578063eaad2eb311610079578063eaad2eb3146104aa578063ec91f2a4146104d1578063efa7f90c146104da578063f25efffc146104ed578063f2fde38b146104f5575f80fd5b8063ce9c7c0d1461045e578063db2e1eed14610471578063dfafd4fd1461047a578063e645c7d0146104a1575f80fd5b80638eb19052116100ef5780638eb1905214610409578063965236441461041c578063a304ee7614610424578063b296024d14610437578063c143171d14610456575f80fd5b806379b835b2146103775780637d9f6db51461038a5780638456cb59146103f15780638da5cb5b146103f9575f80fd5b8063454a2ab3116101a05780635c975abb116101705780635c975abb146103305780635ff3af661461034c57806365308cf3146103545780637120334b1461035c578063715018a61461036f575f80fd5b8063454a2ab3146102a657806347ccca02146102b9578063496a698d146102f85780635134336914610328575f80fd5b806311da60b4116101db57806311da60b414610257578063150b7a021461025f57806336ebdb381461028b5780633f4ba83a1461029e575f80fd5b806223de291461020b578063065de74c146102205780630fb5a6b414610233578063102ac3e21461024f575b5f80fd5b61021e610219366004611f65565b610508565b005b61021e61022e366004612014565b610605565b61023c60055481565b6040519081526020015b60405180910390f35b600d5461023c565b61021e6106f0565b61027261026d36600461202b565b610720565b6040516001600160e01b03199091168152602001610246565b61021e610299366004612099565b6107df565b61021e610830565b61021e6102b4366004612014565b61087a565b6102e07f000000000000000000000000000000000000000000000000000000000000000081565b6040516001600160a01b039091168152602001610246565b610300610974565b604080519485526001600160a01b039093166020850152918301526060820152608001610246565b61023c6109cf565b5f54600160a01b900460ff166040519015158152602001610246565b61021e6109f3565b61021e610afd565b61021e61036a366004612014565b610caf565b61021e610cec565b61023c610385366004612014565b610cfd565b600654600754600854600954600a546103b994939291906001600160a01b03811690600160a01b900460ff1686565b6040805196875260208701959095529385019290925260608401526001600160a01b03166080830152151560a082015260c001610246565b61021e610d73565b5f546001600160a01b03166102e0565b61021e610417366004612014565b610d83565b600c5461023c565b6001546102e0906001600160a01b031681565b6004546104449060ff1681565b60405160ff9091168152602001610246565b61023c610dc0565b61021e61046c366004612014565b610e5b565b61023c60035481565b6102e07f000000000000000000000000000000000000000000000000000000000000000081565b61023c600e5481565b6102e07f000000000000000000000000000000000000000000000000000000000000000081565b61023c60025481565b61021e6104e83660046120c0565b610e98565b61021e610f3f565b61021e6105033660046120c0565b610f5f565b610510610f99565b610518610fb4565b336001600160a01b037f000000000000000000000000000000000000000000000000000000000000000016146105a05760405162461bcd60e51b815260206004820152602260248201527f41756374696f6e53656c6c3a206f6e6c7920636f6e6669677572656420746f6b60448201526132b760f11b60648201526084015b60405180910390fd5b600e54851480156105b15750604083145b156105db575f806105c4858701876120db565b915091506105d48983838a610fde565b50506105e5565b6105e5858861132a565b6105fb60015f8051602061220383398151915255565b5050505050505050565b61060d610f99565b610615610fb4565b600854158061062d5750600a54600160a01b900460ff165b6106795760405162461bcd60e51b815260206004820152601960248201527f41756374696f6e53656c6c3a2061756374696f6e206c697665000000000000006044820152606401610597565b610681610dc0565b81146106cf5760405162461bcd60e51b815260206004820152601e60248201527f41756374696f6e53656c6c3a206e6f74206e65787420696e20717565756500006044820152606401610597565b6106d76116f7565b6106ed60015f8051602061220383398151915255565b50565b6106f8610f99565b610700611980565b6107086119a9565b61071e60015f8051602061220383398151915255565b565b5f336001600160a01b037f000000000000000000000000000000000000000000000000000000000000000016146107995760405162461bcd60e51b815260206004820181905260248201527f41756374696f6e53656c6c3a206f6e6c7920636f6e66696775726564204e46546044820152606401610597565b50600b80546001810182555f919091527f0175b7a638427703f0dbe7bb9bbf987a2551717b34e79f33b5b1008d1fa01db901839055630a85bd0160e11b95945050505050565b6107e7611db4565b6004805460ff191660ff83169081179091556040519081527fef9aafb6f680d6631f801fc1065b9431193abcb849051a7f8ddec8997cd9b101906020015b60405180910390a150565b610838611db4565b610840610f99565b610848611de0565b60085415806108605750600a54600160a01b900460ff165b156107085761086d611e34565b15610708576107086116f7565b610882610f99565b61088a610fb4565b6040516323b872dd60e01b8152336004820152306024820152604481018290527f00000000000000000000000000000000000000000000000000000000000000006001600160a01b0316906323b872dd906064016020604051808303815f875af11580156108fa573d5f803e3d5ffd5b505050506040513d601f19601f8201168201806040525081019061091e91906120fb565b61096a5760405162461bcd60e51b815260206004820152601860248201527f41756374696f6e53656c6c3a2070756c6c206661696c656400000000000000006044820152606401610597565b6106d7813361132a565b5f805f806006600201545f14806109945750600a54600160a01b900460ff165b156109a957505f9250829150819050806109c9565b5050600654600a546007546009549294506001600160a01b039091169250905b90919293565b600d54600c54600b545f92916109e49161212e565b6109ee9190612147565b905090565b6109fb611db4565b600c54600b545f819003610a115750505f600c55565b815f03610a1c575050565b808210610a5d575b600b5415610a5557600b805480610a3d57610a3d61215a565b600190038181905f5260205f20015f90559055610a24565b50505f600c55565b5f610a68838361212e565b90505f5b81811015610abf57600b610a808286612147565b81548110610a9057610a9061216e565b905f5260205f200154600b8281548110610aac57610aac61216e565b5f91825260209091200155600101610a6c565b505b600b54811015610af457600b805480610adc57610adc61215a565b600190038181905f5260205f20015f90559055610ac1565b50505f600c5550565b610b05610f99565b610b0d610fb4565b6040805160c081018252600654815260075460208201819052600854928201929092526009546060820152600a546001600160a01b0381166080830152600160a01b900460ff16151560a08201529015610ba15760405162461bcd60e51b815260206004820152601560248201527441756374696f6e53656c6c3a20686173206269647360581b6044820152606401610597565b8060600151421015610bf55760405162461bcd60e51b815260206004820152601760248201527f41756374696f6e53656c6c3a207374696c6c206c6976650000000000000000006044820152606401610597565b604081015115801590610c0a57508060a00151155b610c505760405162461bcd60e51b815260206004820152601760248201527620bab1ba34b7b729b2b6361d1037379030bab1ba34b7b760491b6044820152606401610597565b600554610c5d9042612147565b60098190558151604051918252907f6e912a3a9105bdd2af817ba5adc14e6c127c1035b5b648faa29ca0d58ab8ff4e9060200160405180910390a25061071e60015f8051602061220383398151915255565b610cb7611db4565b60028190556040518181527f1b55d9f7002bda4490f467e326f22a4a847629c0f2d1ed421607d318d25b410d90602001610825565b610cf4611db4565b61071e5f611e4c565b600b545f908210610d505760405162461bcd60e51b815260206004820152601c60248201527f41756374696f6e53656c6c3a20717565756520696e646578204f4f42000000006044820152606401610597565b600b8281548110610d6357610d6361216e565b905f5260205f2001549050919050565b610d7b611db4565b61071e611e9b565b610d8b611db4565b600e8190556040518181527ff6daedb4ddc4b98b0abfaf9f9ea74c68f5b0f3d56ed85ebb15fa62b17af8826a90602001610825565b600d545f9015610df857600d8054610dda9060019061212e565b81548110610dea57610dea61216e565b905f5260205f200154905090565b600c54600b5411610e465760405162461bcd60e51b815260206004820152601860248201527741756374696f6e53656c6c3a20656d70747920717565756560401b6044820152606401610597565b600b600c5481548110610dea57610dea61216e565b610e63611db4565b60038190556040518181527f6ab2e127d7fdf53b8f304e59d3aab5bfe97979f52a85479691a6fab27a28a6b290602001610825565b610ea0611db4565b6001600160a01b038116610ef65760405162461bcd60e51b815260206004820152601a60248201527f41756374696f6e53656c6c3a207a65726f2070726f63656564730000000000006044820152606401610597565b600180546001600160a01b0319166001600160a01b0383169081179091556040517f4633ba4b294a26448a1f912a51fea8c14eedcd52e3a602334e6b4bd0bba08fc6905f90a250565b610f47610f99565b610f4f610fb4565b610f576119a9565b61086d611e34565b610f67611db4565b6001600160a01b038116610f9057604051631e4fbdf760e01b81525f6004820152602401610597565b6106ed81611e4c565b610fa1611edd565b60025f8051602061220383398151915255565b5f54600160a01b900460ff161561071e5760405163d93c066560e01b815260040160405180910390fd5b6040516331a9108f60e11b81526004810184905230906001600160a01b037f00000000000000000000000000000000000000000000000000000000000000001690636352211e90602401602060405180830381865afa158015611043573d5f803e3d5ffd5b505050506040513d601f19601f820116820180604052508101906110679190612182565b6001600160a01b0316146110bd5760405162461bcd60e51b815260206004820152601c60248201527f41756374696f6e53656c6c3a206e6f7420686f6c64696e67204e4654000000006044820152606401610597565b600c5482101580156110d05750600b5482105b80156110f6575082600b83815481106110eb576110eb61216e565b905f5260205f200154145b6111425760405162461bcd60e51b815260206004820152601c60248201527f41756374696f6e53656c6c3a2062616420717565756520696e646578000000006044820152606401610597565b600b545f906111539060019061212e565b905080831461119757600b818154811061116f5761116f61216e565b905f5260205f200154600b848154811061118b5761118b61216e565b5f918252602090912001555b600b8054806111a8576111a861215a565b5f828152602081205f199083018101829055909101909155600d805460018082018355919092527fd7b6990105719101dabeb77144f2a3385c8033acd3af97e9423a695e81ad1eb59091018590555460405163a9059cbb60e01b81526001600160a01b039182166004820152602481018490527f00000000000000000000000000000000000000000000000000000000000000009091169063a9059cbb906044016020604051808303815f875af1158015611265573d5f803e3d5ffd5b505050506040513d601f19601f8201168201806040525081019061128991906120fb565b6112df5760405162461bcd60e51b815260206004820152602160248201527f41756374696f6e53656c6c3a2062756d702070726f6365656473206661696c656044820152601960fa1b6064820152608401610597565b83856001600160a01b03167f22a742fc4bc38a0480069221d39d2835d7f48fb50057a23df0ec51e57782516f8460405161131b91815260200190565b60405180910390a35050505050565b6040805160c081018252600654815260075460208201526008549181018290526009546060820152600a546001600160a01b0381166080830152600160a01b900460ff16151560a0820152905f036113be5760405162461bcd60e51b815260206004820152601760248201527620bab1ba34b7b729b2b6361d1037379030bab1ba34b7b760491b6044820152606401610597565b8060a00151156114075760405162461bcd60e51b8152602060048201526014602482015273105d58dd1a5bdb94d95b1b0e881cd95d1d1b195960621b6044820152606401610597565b806060015142106114515760405162461bcd60e51b8152602060048201526014602482015273105d58dd1a5bdb94d95b1b0e88195e1c1a5c995960621b6044820152606401610597565b6003548310156114a35760405162461bcd60e51b815260206004820152601a60248201527f41756374696f6e53656c6c3a2062656c6f7720726573657276650000000000006044820152606401610597565b60208101511561152f5760045460208201516064916114c79160ff9091169061219d565b6114d191906121b4565b81602001516114e09190612147565b83101561152f5760405162461bcd60e51b815260206004820152601860248201527f41756374696f6e53656c6c3a2062696420746f6f206c6f7700000000000000006044820152606401610597565b608081015160208201516007859055600a80546001600160a01b0319166001600160a01b03868116919091179091558216156116415760405163a9059cbb60e01b81526001600160a01b038381166004830152602482018390527f0000000000000000000000000000000000000000000000000000000000000000169063a9059cbb906044016020604051808303815f875af11580156115d1573d5f803e3d5ffd5b505050506040513d601f19601f820116820180604052508101906115f591906120fb565b6116415760405162461bcd60e51b815260206004820152601a60248201527f41756374696f6e53656c6c3a20726566756e64206661696c65640000000000006044820152606401610597565b5f600254428560600151611655919061212e565b109050801561166f5760025461166b9042612147565b6009555b83516040518781526001600160a01b03871691907f0e54eff26401bf69b81b26f60bd85ef47f5d85275c1d268d84f68d6897431c479060200160405180910390a380156116ef5783516009546040519081527f6e912a3a9105bdd2af817ba5adc14e6c127c1035b5b648faa29ca0d58ab8ff4e9060200160405180910390a25b505050505050565b600d545f901561175557600d80546117119060019061212e565b815481106117215761172161216e565b905f5260205f2001549050600d80548061173d5761173d61215a565b600190038181905f5260205f20015f90559055611802565b600c54600b54116117a35760405162461bcd60e51b815260206004820152601860248201527741756374696f6e53656c6c3a20656d70747920717565756560401b6044820152606401610597565b600b600c54815481106117b8576117b861216e565b905f5260205f2001549050600c5f81546117d1906121d3565b90915550600c54600b906117e79060019061212e565b815481106117f7576117f761216e565b5f9182526020822001555b6040516331a9108f60e11b81526004810182905230906001600160a01b037f00000000000000000000000000000000000000000000000000000000000000001690636352211e90602401602060405180830381865afa158015611867573d5f803e3d5ffd5b505050506040513d601f19601f8201168201806040525081019061188b9190612182565b6001600160a01b0316146118e15760405162461bcd60e51b815260206004820152601c60248201527f41756374696f6e53656c6c3a206e6f7420686f6c64696e67204e4654000000006044820152606401610597565b60055442905f906118f29083612147565b6040805160c0810182528581525f6020808301829052828401879052606083018590526080830182905260a0909201819052600687905560075560088590556009839055600a80546001600160a81b0319169055905182815291925084917ff8910119ddbef5440c54532457dfe8250a10ed39e583292818f44724b9e1344c910160405180910390a2505050565b5f54600160a01b900460ff1661071e57604051638dfc202b60e01b815260040160405180910390fd5b6040805160c081018252600654815260075460208201819052600854928201929092526009546060820152600a546001600160a01b0381166080830152600160a01b900460ff16151560a082015290611a445760405162461bcd60e51b815260206004820152601760248201527f41756374696f6e53656c6c3a206e6565647320626964730000000000000000006044820152606401610597565b80604001515f03611a905760405162461bcd60e51b815260206004820152601660248201527520bab1ba34b7b729b2b6361d103737ba103132b3bab760511b6044820152606401610597565b8060a0015115611ae25760405162461bcd60e51b815260206004820152601c60248201527f41756374696f6e53656c6c3a20616c726561647920736574746c6564000000006044820152606401610597565b8060600151421015611b365760405162461bcd60e51b815260206004820152601960248201527f41756374696f6e53656c6c3a206e6f7420636f6d706c657465000000000000006044820152606401610597565b600a805460ff60a01b1916600160a01b179055608081015181516040516340c10f1960e01b81526001600160a01b03928316600482015260248101919091525f917f000000000000000000000000000000000000000000000000000000000000000016906340c10f19906044016020604051808303815f875af1158015611bbf573d5f803e3d5ffd5b505050506040513d601f19601f82011682018060405250810190611be391906121eb565b608083015183516040516323b872dd60e01b81523060048201526001600160a01b03928316602482015260448101919091529192507f000000000000000000000000000000000000000000000000000000000000000016906323b872dd906064015f604051808303815f87803b158015611c5b575f80fd5b505af1158015611c6d573d5f803e3d5ffd5b5050600154602085015160405163a9059cbb60e01b81526001600160a01b03928316600482015260248101919091527f0000000000000000000000000000000000000000000000000000000000000000909116925063a9059cbb91506044016020604051808303815f875af1158015611ce8573d5f803e3d5ffd5b505050506040513d601f19601f82011682018060405250810190611d0c91906120fb565b611d585760405162461bcd60e51b815260206004820152601c60248201527f41756374696f6e53656c6c3a2070726f6365656473206661696c6564000000006044820152606401610597565b81608001516001600160a01b0316825f01517ff3f2616e1974d63dd639b6a9ee3bb862a76b9bb4909e0a92a1e95b475e3821b7846020015184604051611da8929190918252602082015260400190565b60405180910390a35050565b5f546001600160a01b0316331461071e5760405163118cdaa760e01b8152336004820152602401610597565b611de8611980565b5f805460ff60a01b191690557f5db9ee0a495bf2e6ff9c91a7834c1ba4fdd244a5e8aa4e537bd38aeae4b073aa335b6040516001600160a01b03909116815260200160405180910390a1565b600d545f901515806109ee575050600c54600b541190565b5f80546001600160a01b038381166001600160a01b0319831681178455604051919092169283917f8be0079c531659141344cd1fd0a4f28419497f9722a3daafe3b4186f6b6457e09190a35050565b611ea3610fb4565b5f805460ff60a01b1916600160a01b1790557f62e78cea01bee320cd4e420270b5ea74000d11b0c9f74754ebdbfc544b05a258611e173390565b5f805160206122038339815191525460020361071e57604051633ee5aeb560e01b815260040160405180910390fd5b6001600160a01b03811681146106ed575f80fd5b5f8083601f840112611f30575f80fd5b50813567ffffffffffffffff811115611f47575f80fd5b602083019150836020828501011115611f5e575f80fd5b9250929050565b5f805f805f805f8060c0898b031215611f7c575f80fd5b8835611f8781611f0c565b97506020890135611f9781611f0c565b96506040890135611fa781611f0c565b955060608901359450608089013567ffffffffffffffff811115611fc9575f80fd5b611fd58b828c01611f20565b90955093505060a089013567ffffffffffffffff811115611ff4575f80fd5b6120008b828c01611f20565b999c989b5096995094979396929594505050565b5f60208284031215612024575f80fd5b5035919050565b5f805f805f6080868803121561203f575f80fd5b853561204a81611f0c565b9450602086013561205a81611f0c565b935060408601359250606086013567ffffffffffffffff81111561207c575f80fd5b61208888828901611f20565b969995985093965092949392505050565b5f602082840312156120a9575f80fd5b813560ff811681146120b9575f80fd5b9392505050565b5f602082840312156120d0575f80fd5b81356120b981611f0c565b5f80604083850312156120ec575f80fd5b50508035926020909101359150565b5f6020828403121561210b575f80fd5b815180151581146120b9575f80fd5b634e487b7160e01b5f52601160045260245ffd5b818103818111156121415761214161211a565b92915050565b808201808211156121415761214161211a565b634e487b7160e01b5f52603160045260245ffd5b634e487b7160e01b5f52603260045260245ffd5b5f60208284031215612192575f80fd5b81516120b981611f0c565b80820281158282048414176121415761214161211a565b5f826121ce57634e487b7160e01b5f52601260045260245ffd5b500490565b5f600182016121e4576121e461211a565b5060010190565b5f602082840312156121fb575f80fd5b505191905056fe9b779b17422d0df92223018b32b4d1fa46e071723d6817e2486d003becc55f00a26469706673582212202d8ec34d50381fa7780885ccc4f19938021cc03aff4e520966a0de2fcce1fbfc64736f6c634300081a0033","linkReferences":{}},"methodIdentifiers":{"auction()":"7d9f6db5","bid(uint256)":"454a2ab3","bidToken()":"dfafd4fd","compactQueue()":"5ff3af66","currentAuction()":"496a698d","duration()":"0fb5a6b4","extendAuction()":"65308cf3","gobbledWarplets()":"eaad2eb3","mainQueueAt(uint256)":"79b835b2","minBidIncrementPercentage()":"b296024d","nextQueuedTokenId()":"c143171d","nft()":"47ccca02","onERC721Received(address,address,uint256,bytes)":"150b7a02","owner()":"8da5cb5b","pause()":"8456cb59","paused()":"5c975abb","priorityQueueLength()":"102ac3e2","proceedsRecipient()":"a304ee76","queueBumpFee()":"e645c7d0","queueHead()":"96523644","queuedLength()":"51343369","renounceOwnership()":"715018a6","reservePrice()":"db2e1eed","setMinBidIncrementPercentage(uint8)":"36ebdb38","setProceedsRecipient(address)":"efa7f90c","setQueueBumpFee(uint256)":"8eb19052","setReservePrice(uint256)":"ce9c7c0d","setTimeBuffer(uint256)":"7120334b","settle()":"11da60b4","settleCurrentAndCreateNewAuction()":"f25efffc","startAuction(uint256)":"065de74c","timeBuffer()":"ec91f2a4","tokensReceived(address,address,address,uint256,bytes,bytes)":"0023de29","transferOwnership(address)":"f2fde38b","unpause()":"3f4ba83a"},"id":47}