{"abi":[{"type":"constructor","inputs":[{"name":"_warplets","type":"address","internalType":"address"},{"name":"_paymentToken","type":"address","internalType":"address"},{"name":"_nftReserve","type":"address","internalType":"address"},{"name":"_feeHandler","type":"address","internalType":"address"}],"stateMutability":"nonpayable"},{"type":"function","name":"currentPrice","inputs":[],"outputs":[{"name":"","type":"uint256","internalType":"uint256"}],"stateMutability":"view"},{"type":"function","name":"gobble","inputs":[{"name":"tokenId","type":"uint256","internalType":"uint256"},{"name":"minPrice","type":"uint256","internalType":"uint256"}],"outputs":[],"stateMutability":"nonpayable"},{"type":"function","name":"nftReserve","inputs":[],"outputs":[{"name":"","type":"address","internalType":"address"}],"stateMutability":"view"},{"type":"function","name":"paymentToken","inputs":[],"outputs":[{"name":"","type":"address","internalType":"contract IERC20"}],"stateMutability":"view"},{"type":"function","name":"warplets","inputs":[],"outputs":[{"name":"","type":"address","internalType":"contract IERC721"}],"stateMutability":"view"},{"type":"event","name":"Gobbled","inputs":[{"name":"seller","type":"address","indexed":true,"internalType":"address"},{"name":"tokenId","type":"uint256","indexed":true,"internalType":"uint256"},{"name":"payout","type":"uint256","indexed":false,"internalType":"uint256"}],"anonymous":false}],"bytecode":{"object":"0x60e060405234801561000f575f80fd5b5060405161059f38038061059f83398101604081905261002e916100d5565b6001600160a01b0384811660805283811660a081905283821660c05260405163095ea7b360e01b815291831660048301525f1960248301529063095ea7b3906044016020604051808303815f875af115801561008c573d5f803e3d5ffd5b505050506040513d601f19601f820116820180604052508101906100b09190610126565b505050505061014c565b80516001600160a01b03811681146100d0575f80fd5b919050565b5f805f80608085870312156100e8575f80fd5b6100f1856100ba565b93506100ff602086016100ba565b925061010d604086016100ba565b915061011b606086016100ba565b905092959194509250565b5f60208284031215610136575f80fd5b81518015158114610145575f80fd5b9392505050565b60805160a05160c05161041061018f5f395f818160a201526101c901525f8181605e0152818161012d01526102ce01525f818160c901526101fb01526104105ff3fe608060405234801561000f575f80fd5b5060043610610055575f3560e01c80633013ce2914610059578063475489d31461009d5780638f2c9746146100c45780639d1b464a146100eb578063e2fac49d14610101575b5f80fd5b6100807f000000000000000000000000000000000000000000000000000000000000000081565b6040516001600160a01b0390911681526020015b60405180910390f35b6100807f000000000000000000000000000000000000000000000000000000000000000081565b6100807f000000000000000000000000000000000000000000000000000000000000000081565b6100f3610116565b604051908152602001610094565b61011461010f36600461037d565b6101a3565b005b6040516370a0823160e01b81523060048201525f907f00000000000000000000000000000000000000000000000000000000000000006001600160a01b0316906370a0823190602401602060405180830381865afa15801561017a573d5f803e3d5ffd5b505050506040513d601f19601f8201168201806040525081019061019e919061039d565b905090565b5f6101ac610116565b604051632142170760e11b81523360048201526001600160a01b037f000000000000000000000000000000000000000000000000000000000000000081166024830152604482018690529192507f0000000000000000000000000000000000000000000000000000000000000000909116906342842e0e906064015f604051808303815f87803b15801561023e575f80fd5b505af1158015610250573d5f803e3d5ffd5b50505050818110156102b25760405162461bcd60e51b815260206004820152602160248201527f507269636520697320746f6f206c6f772c2074727920616761696e206c6174656044820152603960f91b606482015260840160405180910390fd5b60405163a9059cbb60e01b8152336004820152602481018290527f00000000000000000000000000000000000000000000000000000000000000006001600160a01b03169063a9059cbb906044016020604051808303815f875af115801561031c573d5f803e3d5ffd5b505050506040513d601f19601f8201168201806040525081019061034091906103b4565b50604051818152839033907f3da126e02c24c4929d35021e72326334fb19ce7bf6ea60644b1d30f8f8b947f99060200160405180910390a3505050565b5f806040838503121561038e575f80fd5b50508035926020909101359150565b5f602082840312156103ad575f80fd5b5051919050565b5f602082840312156103c4575f80fd5b815180151581146103d3575f80fd5b939250505056fea2646970667358221220f709fa215f999548f601245269188cfa98dd288511345714b4ca62f4476137e164736f6c634300081a0033","linkReferences":{}},"methodIdentifiers":{"currentPrice()":"9d1b464a","gobble(uint256,uint256)":"e2fac49d","nftReserve()":"475489d3","paymentToken()":"3013ce29","warplets()":"8f2c9746"},"id":72}