{"abi":[{"type":"constructor","inputs":[{"name":"_warplets","type":"address","internalType":"address"},{"name":"_paymentToken","type":"address","internalType":"address"},{"name":"_nftReserve","type":"address","internalType":"address"},{"name":"_recoveryWallet","type":"address","internalType":"address"}],"stateMutability":"nonpayable"},{"type":"function","name":"currentPrice","inputs":[],"outputs":[{"name":"","type":"uint256","internalType":"uint256"}],"stateMutability":"view"},{"type":"function","name":"gobble","inputs":[{"name":"tokenId","type":"uint256","internalType":"uint256"}],"outputs":[],"stateMutability":"nonpayable"},{"type":"function","name":"nftReserve","inputs":[],"outputs":[{"name":"","type":"address","internalType":"address"}],"stateMutability":"view"},{"type":"function","name":"paymentToken","inputs":[],"outputs":[{"name":"","type":"address","internalType":"contract IERC20"}],"stateMutability":"view"},{"type":"function","name":"warplets","inputs":[],"outputs":[{"name":"","type":"address","internalType":"contract IERC721"}],"stateMutability":"view"},{"type":"event","name":"Gobbled","inputs":[{"name":"seller","type":"address","indexed":true,"internalType":"address"},{"name":"tokenId","type":"uint256","indexed":true,"internalType":"uint256"},{"name":"payout","type":"uint256","indexed":false,"internalType":"uint256"}],"anonymous":false}],"bytecode":{"object":"0x60e060405234801561000f575f80fd5b5060405161055538038061055583398101604081905261002e916100dd565b6001600160a01b0384811660805283811660a081905283821660c05260405163095ea7b360e01b8152918316600483015268056bc75e2d6310000060248301529063095ea7b3906044016020604051808303815f875af1158015610094573d5f803e3d5ffd5b505050506040513d601f19601f820116820180604052508101906100b8919061012e565b5050505050610154565b80516001600160a01b03811681146100d8575f80fd5b919050565b5f805f80608085870312156100f0575f80fd5b6100f9856100c2565b9350610107602086016100c2565b9250610115604086016100c2565b9150610123606086016100c2565b905092959194509250565b5f6020828403121561013e575f80fd5b8151801515811461014d575f80fd5b9392505050565b60805160a05160c0516103be6101975f395f818160a2015261013301525f8181605e015281816101bb01526102be01525f818160de015261016201526103be5ff3fe608060405234801561000f575f80fd5b5060043610610055575f3560e01c80633013ce2914610059578063475489d31461009d5780636d675995146100c45780638f2c9746146100d95780639d1b464a14610100575b5f80fd5b6100807f000000000000000000000000000000000000000000000000000000000000000081565b6040516001600160a01b0390911681526020015b60405180910390f35b6100807f000000000000000000000000000000000000000000000000000000000000000081565b6100d76100d2366004610334565b610116565b005b6100807f000000000000000000000000000000000000000000000000000000000000000081565b6101086102a7565b604051908152602001610094565b604051632142170760e11b81523360048201526001600160a01b037f000000000000000000000000000000000000000000000000000000000000000081166024830152604482018390527f000000000000000000000000000000000000000000000000000000000000000016906342842e0e906064015f604051808303815f87803b1580156101a3575f80fd5b505af11580156101b5573d5f803e3d5ffd5b505050507f00000000000000000000000000000000000000000000000000000000000000006001600160a01b03166323b872dd30336101f26102a7565b6040516001600160e01b031960e086901b1681526001600160a01b03938416600482015292909116602483015260448201526064016020604051808303815f875af1158015610243573d5f803e3d5ffd5b505050506040513d601f19601f82011682018060405250810190610267919061034b565b5080337f3da126e02c24c4929d35021e72326334fb19ce7bf6ea60644b1d30f8f8b947f96102936102a7565b60405190815260200160405180910390a350565b6040516370a0823160e01b81523060048201525f907f00000000000000000000000000000000000000000000000000000000000000006001600160a01b0316906370a0823190602401602060405180830381865afa15801561030b573d5f803e3d5ffd5b505050506040513d601f19601f8201168201806040525081019061032f9190610371565b905090565b5f60208284031215610344575f80fd5b5035919050565b5f6020828403121561035b575f80fd5b8151801515811461036a575f80fd5b9392505050565b5f60208284031215610381575f80fd5b505191905056fea2646970667358221220cc95f58d182c24d3130f906086b8870e9fe0d52f8d1172f37e4d0a8a5fe939b264736f6c634300081a0033","linkReferences":{}},"methodIdentifiers":{"currentPrice()":"9d1b464a","gobble(uint256)":"6d675995","nftReserve()":"475489d3","paymentToken()":"3013ce29","warplets()":"8f2c9746"},"id":4}